{
  "_format": "hh-sol-artifact-1",
  "contractName": "DegenToken",
  "sourceName": "contracts/DegenToken.sol",
  "abi": [
    {
      "inputs": [],
      "stateMutability": "nonpayable",
      "type": "constructor"
    },
    {
      "anonymous": false,
      "inputs": [
        {
          "indexed": true,
          "internalType": "address",
          "name": "owner",
          "type": "address"
        },
        {
          "indexed": true,
          "internalType": "address",
          "name": "spender",
          "type": "address"
        },
        {
          "indexed": false,
          "internalType": "uint256",
          "name": "value",
          "type": "uint256"
        }
      ],
      "name": "Approval",
      "type": "event"
    },
    {
      "anonymous": false,
      "inputs": [
        {
          "indexed": true,
          "internalType": "address",
          "name": "from",
          "type": "address"
        },
        {
          "indexed": true,
          "internalType": "address",
          "name": "to",
          "type": "address"
        },
        {
          "indexed": false,
          "internalType": "uint256",
          "name": "value",
          "type": "uint256"
        }
      ],
      "name": "Transfer",
      "type": "event"
    },
    {
      "inputs": [],
      "name": "_name",
      "outputs": [
        {
          "internalType": "string",
          "name": "",
          "type": "string"
        }
      ],
      "stateMutability": "view",
      "type": "function"
    },
    {
      "inputs": [],
      "name": "_symbol",
      "outputs": [
        {
          "internalType": "string",
          "name": "",
          "type": "string"
        }
      ],
      "stateMutability": "view",
      "type": "function"
    },
    {
      "inputs": [
        {
          "internalType": "address",
          "name": "owner",
          "type": "address"
        },
        {
          "internalType": "address",
          "name": "spender",
          "type": "address"
        }
      ],
      "name": "allowance",
      "outputs": [
        {
          "internalType": "uint256",
          "name": "",
          "type": "uint256"
        }
      ],
      "stateMutability": "view",
      "type": "function"
    },
    {
      "inputs": [
        {
          "internalType": "address",
          "name": "spender",
          "type": "address"
        },
        {
          "internalType": "uint256",
          "name": "value",
          "type": "uint256"
        }
      ],
      "name": "approve",
      "outputs": [
        {
          "internalType": "bool",
          "name": "",
          "type": "bool"
        }
      ],
      "stateMutability": "nonpayable",
      "type": "function"
    },
    {
      "inputs": [
        {
          "internalType": "address",
          "name": "account",
          "type": "address"
        }
      ],
      "name": "balanceOf",
      "outputs": [
        {
          "internalType": "uint256",
          "name": "",
          "type": "uint256"
        }
      ],
      "stateMutability": "view",
      "type": "function"
    },
    {
      "inputs": [
        {
          "internalType": "uint256",
          "name": "value",
          "type": "uint256"
        }
      ],
      "name": "burn",
      "outputs": [
        {
          "internalType": "bool",
          "name": "",
          "type": "bool"
        }
      ],
      "stateMutability": "nonpayable",
      "type": "function"
    },
    {
      "inputs": [],
      "name": "getItems",
      "outputs": [
        {
          "internalType": "string[]",
          "name": "",
          "type": "string[]"
        }
      ],
      "stateMutability": "view",
      "type": "function"
    },
    {
      "inputs": [
        {
          "internalType": "address",
          "name": "to",
          "type": "address"
        },
        {
          "internalType": "uint256",
          "name": "value",
          "type": "uint256"
        }
      ],
      "name": "mint",
      "outputs": [
        {
          "internalType": "bool",
          "name": "",
          "type": "bool"
        }
      ],
      "stateMutability": "nonpayable",
      "type": "function"
    },
    {
      "inputs": [
        {
          "internalType": "uint256",
          "name": "id",
          "type": "uint256"
        }
      ],
      "name": "redeem",
      "outputs": [
        {
          "internalType": "string",
          "name": "",
          "type": "string"
        }
      ],
      "stateMutability": "nonpayable",
      "type": "function"
    },
    {
      "inputs": [],
      "name": "totalSupply",
      "outputs": [
        {
          "internalType": "uint256",
          "name": "",
          "type": "uint256"
        }
      ],
      "stateMutability": "view",
      "type": "function"
    },
    {
      "inputs": [
        {
          "internalType": "address",
          "name": "to",
          "type": "address"
        },
        {
          "internalType": "uint256",
          "name": "value",
          "type": "uint256"
        }
      ],
      "name": "transfer",
      "outputs": [
        {
          "internalType": "bool",
          "name": "",
          "type": "bool"
        }
      ],
      "stateMutability": "nonpayable",
      "type": "function"
    },
    {
      "inputs": [
        {
          "internalType": "address",
          "name": "from",
          "type": "address"
        },
        {
          "internalType": "address",
          "name": "to",
          "type": "address"
        },
        {
          "internalType": "uint256",
          "name": "value",
          "type": "uint256"
        }
      ],
      "name": "transferFrom",
      "outputs": [
        {
          "internalType": "bool",
          "name": "",
          "type": "bool"
        }
      ],
      "stateMutability": "nonpayable",
      "type": "function"
    }
  ],
  "bytecode": "0x608060405260405180604001604052806040518060400160405280601881526020017f6964203a20312c20446567656e4e4654203130302044474e000000000000000081525081526020016040518060400160405280601d81526020017f6964203a20322c20446567656e20542d7368697274203230302044474e000000815250815250600490600262000095929190620001a9565b506040518060400160405280606460ff16815260200160c860ff168152506005906002620000c592919062000209565b50348015620000d357600080fd5b506040518060400160405280600581526020017f444547454e000000000000000000000000000000000000000000000000000000815250600690816200011a919062000567565b506040518060400160405280600381526020017f44474e00000000000000000000000000000000000000000000000000000000008152506007908162000161919062000567565b5033600260006101000a81548173ffffffffffffffffffffffffffffffffffffffff021916908373ffffffffffffffffffffffffffffffffffffffff1602179055506200064e565b828054828255906000526020600020908101928215620001f6579160200282015b82811115620001f5578251829081620001e4919062000567565b5091602001919060010190620001ca565b5b50905062000205919062000260565b5090565b8280548282559060005260206000209081019282156200024d579160200282015b828111156200024c578251829060ff169055916020019190600101906200022a565b5b5090506200025c919062000288565b5090565b5b808211156200028457600081816200027a9190620002a7565b5060010162000261565b5090565b5b80821115620002a357600081600090555060010162000289565b5090565b508054620002b59062000356565b6000825580601f10620002c95750620002ea565b601f016020900490600052602060002090810190620002e9919062000288565b5b50565b600081519050919050565b7f4e487b7100000000000000000000000000000000000000000000000000000000600052604160045260246000fd5b7f4e487b7100000000000000000000000000000000000000000000000000000000600052602260045260246000fd5b600060028204905060018216806200036f57607f821691505b60208210810362000385576200038462000327565b5b50919050565b60008190508160005260206000209050919050565b60006020601f8301049050919050565b600082821b905092915050565b600060088302620003ef7fffffffffffffffffffffffffffffffffffffffffffffffffffffffffffffffff82620003b0565b620003fb8683620003b0565b95508019841693508086168417925050509392505050565b6000819050919050565b6000819050919050565b600062000448620004426200043c8462000413565b6200041d565b62000413565b9050919050565b6000819050919050565b620004648362000427565b6200047c62000473826200044f565b848454620003bd565b825550505050565b600090565b6200049362000484565b620004a081848462000459565b505050565b5b81811015620004c857620004bc60008262000489565b600181019050620004a6565b5050565b601f8211156200051757620004e1816200038b565b620004ec84620003a0565b81016020851015620004fc578190505b620005146200050b85620003a0565b830182620004a5565b50505b505050565b600082821c905092915050565b60006200053c600019846008026200051c565b1980831691505092915050565b600062000557838362000529565b9150826002028217905092915050565b6200057282620002ed565b67ffffffffffffffff8111156200058e576200058d620002f8565b5b6200059a825462000356565b620005a7828285620004cc565b600060209050601f831160018114620005df5760008415620005ca578287015190505b620005d6858262000549565b86555062000646565b601f198416620005ef866200038b565b60005b828110156200061957848901518255600182019150602085019450602081019050620005f2565b8683101562000639578489015162000635601f89168262000529565b8355505b6001600288020188555050505b505050505050565b61173d806200065e6000396000f3fe608060405234801561001057600080fd5b50600436106100b45760003560e01c806370a082311161007157806370a08231146101b5578063a9059cbb146101e5578063b09f126614610215578063d28d885214610233578063db006a7514610251578063dd62ed3e14610281576100b4565b8063095ea7b3146100b957806318160ddd146100e957806323b872dd1461010757806340c10f1914610137578063410d59cc1461016757806342966c6814610185575b600080fd5b6100d360048036038101906100ce9190611130565b6102b1565b6040516100e0919061118b565b60405180910390f35b6100f161048b565b6040516100fe91906111b5565b60405180910390f35b610121600480360381019061011c91906111d0565b610495565b60405161012e919061118b565b60405180910390f35b610151600480360381019061014c9190611130565b6106ae565b60405161015e919061118b565b60405180910390f35b61016f61081e565b60405161017c9190611375565b60405180910390f35b61019f600480360381019061019a9190611397565b6108f7565b6040516101ac919061118b565b60405180910390f35b6101cf60048036038101906101ca91906113c4565b610a57565b6040516101dc91906111b5565b60405180910390f35b6101ff60048036038101906101fa9190611130565b610a9f565b60405161020c919061118b565b60405180910390f35b61021d610c3b565b60405161022a919061143b565b60405180910390f35b61023b610cc9565b604051610248919061143b565b60405180910390f35b61026b60048036038101906102669190611397565b610d57565b604051610278919061143b565b60405180910390f35b61029b6004803603810190610296919061145d565b611010565b6040516102a891906111b5565b60405180910390f35b6000816000803373ffffffffffffffffffffffffffffffffffffffff1673ffffffffffffffffffffffffffffffffffffffff168152602001908152602001600020541015610334576040517f08c379a000000000000000000000000000000000000000000000000000000000815260040161032b906114e9565b60405180910390fd5b81600160003373ffffffffffffffffffffffffffffffffffffffff1673ffffffffffffffffffffffffffffffffffffffff16815260200190815260200160002060008573ffffffffffffffffffffffffffffffffffffffff1673ffffffffffffffffffffffffffffffffffffffff16815260200190815260200160002060008282546103c09190611538565b92505081905550816000803373ffffffffffffffffffffffffffffffffffffffff1673ffffffffffffffffffffffffffffffffffffffff1681526020019081526020016000206000828254610415919061156c565b925050819055508273ffffffffffffffffffffffffffffffffffffffff163373ffffffffffffffffffffffffffffffffffffffff167f8c5be1e5ebec7d5bd14f71427d1e84f3dd0314c0f7b2291e5b200ac8c7c3b9258460405161047991906111b5565b60405180910390a36001905092915050565b6000600354905090565b600081600160008673ffffffffffffffffffffffffffffffffffffffff1673ffffffffffffffffffffffffffffffffffffffff16815260200190815260200160002060003373ffffffffffffffffffffffffffffffffffffffff1673ffffffffffffffffffffffffffffffffffffffff168152602001908152602001600020541015610556576040517f08c379a000000000000000000000000000000000000000000000000000000000815260040161054d906115ec565b60405180910390fd5b81600160008673ffffffffffffffffffffffffffffffffffffffff1673ffffffffffffffffffffffffffffffffffffffff16815260200190815260200160002060003373ffffffffffffffffffffffffffffffffffffffff1673ffffffffffffffffffffffffffffffffffffffff16815260200190815260200160002060008282546105e2919061156c565b92505081905550816000808573ffffffffffffffffffffffffffffffffffffffff1673ffffffffffffffffffffffffffffffffffffffff16815260200190815260200160002060008282546106379190611538565b925050819055508273ffffffffffffffffffffffffffffffffffffffff168473ffffffffffffffffffffffffffffffffffffffff167fddf252ad1be2c89b69c2b068fc378daa952ba7f163c4a11628f55a4df523b3ef8460405161069b91906111b5565b60405180910390a3600190509392505050565b6000600260009054906101000a900473ffffffffffffffffffffffffffffffffffffffff1673ffffffffffffffffffffffffffffffffffffffff163373ffffffffffffffffffffffffffffffffffffffff1614610740576040517f08c379a000000000000000000000000000000000000000000000000000000000815260040161073790611658565b60405180910390fd5b81600360008282546107529190611538565b92505081905550816000808573ffffffffffffffffffffffffffffffffffffffff1673ffffffffffffffffffffffffffffffffffffffff16815260200190815260200160002060008282546107a79190611538565b925050819055508273ffffffffffffffffffffffffffffffffffffffff16600073ffffffffffffffffffffffffffffffffffffffff167fddf252ad1be2c89b69c2b068fc378daa952ba7f163c4a11628f55a4df523b3ef8460405161080c91906111b5565b60405180910390a36001905092915050565b60606004805480602002602001604051908101604052809291908181526020016000905b828210156108ee578382906000526020600020018054610861906116a7565b80601f016020809104026020016040519081016040528092919081815260200182805461088d906116a7565b80156108da5780601f106108af576101008083540402835291602001916108da565b820191906000526020600020905b8154815290600101906020018083116108bd57829003601f168201915b505050505081526020019060010190610842565b50505050905090565b6000816000803373ffffffffffffffffffffffffffffffffffffffff1673ffffffffffffffffffffffffffffffffffffffff16815260200190815260200160002054101561097a576040517f08c379a0000000000000000000000000000000000000000000000000000000008152600401610971906114e9565b60405180910390fd5b816000803373ffffffffffffffffffffffffffffffffffffffff1673ffffffffffffffffffffffffffffffffffffffff16815260200190815260200160002060008282546109c8919061156c565b9250508190555081600360008282546109e1919061156c565b92505081905550600073ffffffffffffffffffffffffffffffffffffffff163373ffffffffffffffffffffffffffffffffffffffff167fddf252ad1be2c89b69c2b068fc378daa952ba7f163c4a11628f55a4df523b3ef84604051610a4691906111b5565b60405180910390a360019050919050565b60008060008373ffffffffffffffffffffffffffffffffffffffff1673ffffffffffffffffffffffffffffffffffffffff168152602001908152602001600020549050919050565b6000816000803373ffffffffffffffffffffffffffffffffffffffff1673ffffffffffffffffffffffffffffffffffffffff168152602001908152602001600020541015610b22576040517f08c379a0000000000000000000000000000000000000000000000000000000008152600401610b19906114e9565b60405180910390fd5b816000803373ffffffffffffffffffffffffffffffffffffffff1673ffffffffffffffffffffffffffffffffffffffff1681526020019081526020016000206000828254610b70919061156c565b92505081905550816000808573ffffffffffffffffffffffffffffffffffffffff1673ffffffffffffffffffffffffffffffffffffffff1681526020019081526020016000206000828254610bc59190611538565b925050819055508273ffffffffffffffffffffffffffffffffffffffff163373ffffffffffffffffffffffffffffffffffffffff167fddf252ad1be2c89b69c2b068fc378daa952ba7f163c4a11628f55a4df523b3ef84604051610c2991906111b5565b60405180910390a36001905092915050565b60078054610c48906116a7565b80601f0160208091040260200160405190810160405280929190818152602001828054610c74906116a7565b8015610cc15780601f10610c9657610100808354040283529160200191610cc1565b820191906000526020600020905b815481529060010190602001808311610ca457829003601f168201915b505050505081565b60068054610cd6906116a7565b80601f0160208091040260200160405190810160405280929190818152602001828054610d02906116a7565b8015610d4f5780601f10610d2457610100808354040283529160200191610d4f565b820191906000526020600020905b815481529060010190602001808311610d3257829003601f168201915b505050505081565b60606005600183610d68919061156c565b81548110610d7957610d786116d8565b5b90600052602060002001546000803373ffffffffffffffffffffffffffffffffffffffff1673ffffffffffffffffffffffffffffffffffffffff168152602001908152602001600020541015610e04576040517f08c379a0000000000000000000000000000000000000000000000000000000008152600401610dfb906114e9565b60405180910390fd5b6005600183610e13919061156c565b81548110610e2457610e236116d8565b5b90600052602060002001546000803373ffffffffffffffffffffffffffffffffffffffff1673ffffffffffffffffffffffffffffffffffffffff1681526020019081526020016000206000828254610e7c919061156c565b925050819055506005600183610e92919061156c565b81548110610ea357610ea26116d8565b5b906000526020600020015460036000828254610ebf919061156c565b92505081905550600073ffffffffffffffffffffffffffffffffffffffff163373ffffffffffffffffffffffffffffffffffffffff167fddf252ad1be2c89b69c2b068fc378daa952ba7f163c4a11628f55a4df523b3ef6005600186610f25919061156c565b81548110610f3657610f356116d8565b5b9060005260206000200154604051610f4e91906111b5565b60405180910390a36004600183610f65919061156c565b81548110610f7657610f756116d8565b5b906000526020600020018054610f8b906116a7565b80601f0160208091040260200160405190810160405280929190818152602001828054610fb7906116a7565b80156110045780601f10610fd957610100808354040283529160200191611004565b820191906000526020600020905b815481529060010190602001808311610fe757829003601f168201915b50505050509050919050565b6000600160008473ffffffffffffffffffffffffffffffffffffffff1673ffffffffffffffffffffffffffffffffffffffff16815260200190815260200160002060008373ffffffffffffffffffffffffffffffffffffffff1673ffffffffffffffffffffffffffffffffffffffff16815260200190815260200160002054905092915050565b600080fd5b600073ffffffffffffffffffffffffffffffffffffffff82169050919050565b60006110c78261109c565b9050919050565b6110d7816110bc565b81146110e257600080fd5b50565b6000813590506110f4816110ce565b92915050565b6000819050919050565b61110d816110fa565b811461111857600080fd5b50565b60008135905061112a81611104565b92915050565b6000806040838503121561114757611146611097565b5b6000611155858286016110e5565b92505060206111668582860161111b565b9150509250929050565b60008115159050919050565b61118581611170565b82525050565b60006020820190506111a0600083018461117c565b92915050565b6111af816110fa565b82525050565b60006020820190506111ca60008301846111a6565b92915050565b6000806000606084860312156111e9576111e8611097565b5b60006111f7868287016110e5565b9350506020611208868287016110e5565b92505060406112198682870161111b565b9150509250925092565b600081519050919050565b600082825260208201905092915050565b6000819050602082019050919050565b600081519050919050565b600082825260208201905092915050565b60005b8381101561128957808201518184015260208101905061126e565b60008484015250505050565b6000601f19601f8301169050919050565b60006112b18261124f565b6112bb818561125a565b93506112cb81856020860161126b565b6112d481611295565b840191505092915050565b60006112eb83836112a6565b905092915050565b6000602082019050919050565b600061130b82611223565b611315818561122e565b9350836020820285016113278561123f565b8060005b85811015611363578484038952815161134485826112df565b945061134f836112f3565b925060208a0199505060018101905061132b565b50829750879550505050505092915050565b6000602082019050818103600083015261138f8184611300565b905092915050565b6000602082840312156113ad576113ac611097565b5b60006113bb8482850161111b565b91505092915050565b6000602082840312156113da576113d9611097565b5b60006113e8848285016110e5565b91505092915050565b600082825260208201905092915050565b600061140d8261124f565b61141781856113f1565b935061142781856020860161126b565b61143081611295565b840191505092915050565b600060208201905081810360008301526114558184611402565b905092915050565b6000806040838503121561147457611473611097565b5b6000611482858286016110e5565b9250506020611493858286016110e5565b9150509250929050565b7f496e73756666696369656e742062616c616e6365000000000000000000000000600082015250565b60006114d36014836113f1565b91506114de8261149d565b602082019050919050565b60006020820190508181036000830152611502816114c6565b9050919050565b7f4e487b7100000000000000000000000000000000000000000000000000000000600052601160045260246000fd5b6000611543826110fa565b915061154e836110fa565b925082820190508082111561156657611565611509565b5b92915050565b6000611577826110fa565b9150611582836110fa565b925082820390508181111561159a57611599611509565b5b92915050565b7f496e73756666696369656e7420616c6c6f77616e636500000000000000000000600082015250565b60006115d66016836113f1565b91506115e1826115a0565b602082019050919050565b60006020820190508181036000830152611605816115c9565b9050919050565b7f4f6e6c79206f776e65722063616e206d696e7400000000000000000000000000600082015250565b60006116426013836113f1565b915061164d8261160c565b602082019050919050565b6000602082019050818103600083015261167181611635565b9050919050565b7f4e487b7100000000000000000000000000000000000000000000000000000000600052602260045260246000fd5b600060028204905060018216806116bf57607f821691505b6020821081036116d2576116d1611678565b5b50919050565b7f4e487b7100000000000000000000000000000000000000000000000000000000600052603260045260246000fdfea2646970667358221220274e29df4ef7f639dfb279e41070339aa68161d835f53126834420e3375d4e4464736f6c63430008120033",
  "linkReferences": {},
  "deployedLinkReferences": {}
}